{
  "_format": "hh-sol-artifact-1",
  "contractName": "Vote",
  "sourceName": "contracts/Vote.sol",
  "abi": [
    {
      "inputs": [],
      "stateMutability": "nonpayable",
      "type": "constructor"
    },
    {
      "anonymous": false,
      "inputs": [
        {
          "components": [
            {
              "internalType": "uint256",
              "name": "pollId",
              "type": "uint256"
            },
            {
              "internalType": "string",
              "name": "winnerName",
              "type": "string"
            },
            {
              "internalType": "string",
              "name": "partyName",
              "type": "string"
            },
            {
              "internalType": "address",
              "name": "winnerAdd",
              "type": "address"
            }
          ],
          "indexed": false,
          "internalType": "struct Vote.PollInfo",
          "name": "_info",
          "type": "tuple"
        },
        {
          "indexed": false,
          "internalType": "address",
          "name": "_electionCommission",
          "type": "address"
        }
      ],
      "name": "EcWinner",
      "type": "event"
    },
    {
      "anonymous": false,
      "inputs": [
        {
          "indexed": false,
          "internalType": "address",
          "name": "voter",
          "type": "address"
        },
        {
          "indexed": false,
          "internalType": "string",
          "name": "feedback",
          "type": "string"
        },
        {
          "indexed": false,
          "internalType": "uint256",
          "name": "pollId",
          "type": "uint256"
        }
      ],
      "name": "FeedbackSubmitted",
      "type": "event"
    },
    {
      "anonymous": false,
      "inputs": [
        {
          "indexed": true,
          "internalType": "bytes32",
          "name": "role",
          "type": "bytes32"
        },
        {
          "indexed": true,
          "internalType": "bytes32",
          "name": "previousAdminRole",
          "type": "bytes32"
        },
        {
          "indexed": true,
          "internalType": "bytes32",
          "name": "newAdminRole",
          "type": "bytes32"
        }
      ],
      "name": "RoleAdminChanged",
      "type": "event"
    },
    {
      "anonymous": false,
      "inputs": [
        {
          "indexed": true,
          "internalType": "bytes32",
          "name": "role",
          "type": "bytes32"
        },
        {
          "indexed": true,
          "internalType": "address",
          "name": "account",
          "type": "address"
        },
        {
          "indexed": true,
          "internalType": "address",
          "name": "sender",
          "type": "address"
        }
      ],
      "name": "RoleGranted",
      "type": "event"
    },
    {
      "anonymous": false,
      "inputs": [
        {
          "indexed": true,
          "internalType": "bytes32",
          "name": "role",
          "type": "bytes32"
        },
        {
          "indexed": true,
          "internalType": "address",
          "name": "account",
          "type": "address"
        },
        {
          "indexed": true,
          "internalType": "address",
          "name": "sender",
          "type": "address"
        }
      ],
      "name": "RoleRevoked",
      "type": "event"
    },
    {
      "anonymous": false,
      "inputs": [
        {
          "indexed": false,
          "internalType": "address",
          "name": "voter",
          "type": "address"
        },
        {
          "indexed": false,
          "internalType": "uint256",
          "name": "pollId",
          "type": "uint256"
        }
      ],
      "name": "VoterRegistered",
      "type": "event"
    },
    {
      "anonymous": false,
      "inputs": [
        {
          "indexed": false,
          "internalType": "uint256",
          "name": "pollId",
          "type": "uint256"
        }
      ],
      "name": "VotingEnded",
      "type": "event"
    },
    {
      "anonymous": false,
      "inputs": [
        {
          "indexed": false,
          "internalType": "uint256",
          "name": "startTime",
          "type": "uint256"
        },
        {
          "indexed": false,
          "internalType": "uint256",
          "name": "endTime",
          "type": "uint256"
        }
      ],
      "name": "VotingStarted",
      "type": "event"
    },
    {
      "anonymous": false,
      "inputs": [
        {
          "indexed": false,
          "internalType": "string",
          "name": "_name",
          "type": "string"
        },
        {
          "indexed": false,
          "internalType": "string",
          "name": "_party",
          "type": "string"
        },
        {
          "indexed": false,
          "internalType": "uint256",
          "name": "_candidateId",
          "type": "uint256"
        },
        {
          "indexed": false,
          "internalType": "address",
          "name": "_electionCommission",
          "type": "address"
        },
        {
          "indexed": false,
          "internalType": "uint256",
          "name": "_pollId",
          "type": "uint256"
        }
      ],
      "name": "candidate",
      "type": "event"
    },
    {
      "anonymous": false,
      "inputs": [
        {
          "indexed": false,
          "internalType": "string",
          "name": "_name",
          "type": "string"
        },
        {
          "indexed": false,
          "internalType": "uint256",
          "name": "_votedTo",
          "type": "uint256"
        },
        {
          "indexed": false,
          "internalType": "address",
          "name": "_voterAdd",
          "type": "address"
        },
        {
          "indexed": false,
          "internalType": "address",
          "name": "_electionCommission",
          "type": "address"
        },
        {
          "indexed": false,
          "internalType": "uint256",
          "name": "_pollId",
          "type": "uint256"
        }
      ],
      "name": "voter",
      "type": "event"
    },
    {
      "inputs": [],
      "name": "ADMIN_ROLE",
      "outputs": [
        {
          "internalType": "bytes32",
          "name": "",
          "type": "bytes32"
        }
      ],
      "stateMutability": "view",
      "type": "function"
    },
    {
      "inputs": [],
      "name": "CANDIDATE_ROLE",
      "outputs": [
        {
          "internalType": "bytes32",
          "name": "",
          "type": "bytes32"
        }
      ],
      "stateMutability": "view",
      "type": "function"
    },
    {
      "inputs": [],
      "name": "DEFAULT_ADMIN_ROLE",
      "outputs": [
        {
          "internalType": "bytes32",
          "name": "",
          "type": "bytes32"
        }
      ],
      "stateMutability": "view",
      "type": "function"
    },
    {
      "inputs": [],
      "name": "EcPollInfo",
      "outputs": [
        {
          "internalType": "uint256",
          "name": "",
          "type": "uint256"
        },
        {
          "internalType": "string",
          "name": "",
          "type": "string"
        },
        {
          "internalType": "string",
          "name": "",
          "type": "string"
        },
        {
          "internalType": "address",
          "name": "",
          "type": "address"
        }
      ],
      "stateMutability": "view",
      "type": "function"
    },
    {
      "inputs": [],
      "name": "VOTER_ROLE",
      "outputs": [
        {
          "internalType": "bytes32",
          "name": "",
          "type": "bytes32"
        }
      ],
      "stateMutability": "view",
      "type": "function"
    },
    {
      "inputs": [],
      "name": "candidateList",
      "outputs": [
        {
          "components": [
            {
              "internalType": "string",
              "name": "name",
              "type": "string"
            },
            {
              "internalType": "string",
              "name": "party",
              "type": "string"
            },
            {
              "internalType": "uint256",
              "name": "age",
              "type": "uint256"
            },
            {
              "internalType": "string",
              "name": "gender",
              "type": "string"
            },
            {
              "internalType": "uint256",
              "name": "candidateId",
              "type": "uint256"
            },
            {
              "internalType": "address",
              "name": "candidateAddress",
              "type": "address"
            },
            {
              "internalType": "uint256",
              "name": "votes",
              "type": "uint256"
            },
            {
              "internalType": "uint256",
              "name": "pollID",
              "type": "uint256"
            },
            {
              "internalType": "bool",
              "name": "isVerified",
              "type": "bool"
            }
          ],
          "internalType": "struct Vote.Candidate[]",
          "name": "",
          "type": "tuple[]"
        }
      ],
      "stateMutability": "view",
      "type": "function"
    },
    {
      "inputs": [
        {
          "internalType": "string",
          "name": "_name",
          "type": "string"
        },
        {
          "internalType": "string",
          "name": "_party",
          "type": "string"
        },
        {
          "internalType": "uint256",
          "name": "_age",
          "type": "uint256"
        },
        {
          "internalType": "string",
          "name": "_gender",
          "type": "string"
        }
      ],
      "name": "candidateRegister",
      "outputs": [],
      "stateMutability": "nonpayable",
      "type": "function"
    },
    {
      "inputs": [],
      "name": "checkVotedOrNot",
      "outputs": [
        {
          "internalType": "bool",
          "name": "",
          "type": "bool"
        }
      ],
      "stateMutability": "view",
      "type": "function"
    },
    {
      "inputs": [],
      "name": "checkVoterID",
      "outputs": [
        {
          "internalType": "uint256",
          "name": "",
          "type": "uint256"
        }
      ],
      "stateMutability": "view",
      "type": "function"
    },
    {
      "inputs": [],
      "name": "checkVoterRegistered",
      "outputs": [
        {
          "internalType": "bool",
          "name": "",
          "type": "bool"
        }
      ],
      "stateMutability": "view",
      "type": "function"
    },
    {
      "inputs": [],
      "name": "electionCommission",
      "outputs": [
        {
          "internalType": "address",
          "name": "",
          "type": "address"
        }
      ],
      "stateMutability": "view",
      "type": "function"
    },
    {
      "inputs": [],
      "name": "emergency",
      "outputs": [],
      "stateMutability": "nonpayable",
      "type": "function"
    },
    {
      "inputs": [],
      "name": "endTime",
      "outputs": [
        {
          "internalType": "uint256",
          "name": "",
          "type": "uint256"
        }
      ],
      "stateMutability": "view",
      "type": "function"
    },
    {
      "inputs": [
        {
          "internalType": "bytes32",
          "name": "role",
          "type": "bytes32"
        }
      ],
      "name": "getRoleAdmin",
      "outputs": [
        {
          "internalType": "bytes32",
          "name": "",
          "type": "bytes32"
        }
      ],
      "stateMutability": "view",
      "type": "function"
    },
    {
      "inputs": [
        {
          "internalType": "bytes32",
          "name": "role",
          "type": "bytes32"
        },
        {
          "internalType": "address",
          "name": "account",
          "type": "address"
        }
      ],
      "name": "grantRole",
      "outputs": [],
      "stateMutability": "nonpayable",
      "type": "function"
    },
    {
      "inputs": [
        {
          "internalType": "bytes32",
          "name": "role",
          "type": "bytes32"
        },
        {
          "internalType": "address",
          "name": "account",
          "type": "address"
        }
      ],
      "name": "hasRole",
      "outputs": [
        {
          "internalType": "bool",
          "name": "",
          "type": "bool"
        }
      ],
      "stateMutability": "view",
      "type": "function"
    },
    {
      "inputs": [
        {
          "internalType": "address",
          "name": "",
          "type": "address"
        }
      ],
      "name": "isAdmin",
      "outputs": [
        {
          "internalType": "bool",
          "name": "",
          "type": "bool"
        }
      ],
      "stateMutability": "view",
      "type": "function"
    },
    {
      "inputs": [
        {
          "internalType": "address",
          "name": "",
          "type": "address"
        }
      ],
      "name": "isCandidate",
      "outputs": [
        {
          "internalType": "bool",
          "name": "",
          "type": "bool"
        }
      ],
      "stateMutability": "view",
      "type": "function"
    },
    {
      "inputs": [
        {
          "internalType": "uint256",
          "name": "",
          "type": "uint256"
        },
        {
          "internalType": "address",
          "name": "",
          "type": "address"
        }
      ],
      "name": "isCandidateRegistered",
      "outputs": [
        {
          "internalType": "bool",
          "name": "",
          "type": "bool"
        }
      ],
      "stateMutability": "view",
      "type": "function"
    },
    {
      "inputs": [
        {
          "internalType": "address",
          "name": "",
          "type": "address"
        }
      ],
      "name": "isVoter",
      "outputs": [
        {
          "internalType": "bool",
          "name": "",
          "type": "bool"
        }
      ],
      "stateMutability": "view",
      "type": "function"
    },
    {
      "inputs": [
        {
          "internalType": "uint256",
          "name": "",
          "type": "uint256"
        },
        {
          "internalType": "address",
          "name": "",
          "type": "address"
        }
      ],
      "name": "isVoterRegistered",
      "outputs": [
        {
          "internalType": "bool",
          "name": "",
          "type": "bool"
        }
      ],
      "stateMutability": "view",
      "type": "function"
    },
    {
      "inputs": [],
      "name": "maxCandidates",
      "outputs": [
        {
          "internalType": "uint256",
          "name": "",
          "type": "uint256"
        }
      ],
      "stateMutability": "view",
      "type": "function"
    },
    {
      "inputs": [],
      "name": "maxVotingDuration",
      "outputs": [
        {
          "internalType": "uint256",
          "name": "",
          "type": "uint256"
        }
      ],
      "stateMutability": "view",
      "type": "function"
    },
    {
      "inputs": [],
      "name": "nextPollId",
      "outputs": [
        {
          "internalType": "uint256",
          "name": "",
          "type": "uint256"
        }
      ],
      "stateMutability": "view",
      "type": "function"
    },
    {
      "inputs": [
        {
          "internalType": "bytes32",
          "name": "role",
          "type": "bytes32"
        },
        {
          "internalType": "address",
          "name": "account",
          "type": "address"
        }
      ],
      "name": "renounceRole",
      "outputs": [],
      "stateMutability": "nonpayable",
      "type": "function"
    },
    {
      "inputs": [],
      "name": "resetElectionCommission",
      "outputs": [
        {
          "internalType": "bool",
          "name": "",
          "type": "bool"
        }
      ],
      "stateMutability": "nonpayable",
      "type": "function"
    },
    {
      "inputs": [],
      "name": "result",
      "outputs": [],
      "stateMutability": "nonpayable",
      "type": "function"
    },
    {
      "inputs": [
        {
          "internalType": "bytes32",
          "name": "role",
          "type": "bytes32"
        },
        {
          "internalType": "address",
          "name": "account",
          "type": "address"
        }
      ],
      "name": "revokeRole",
      "outputs": [],
      "stateMutability": "nonpayable",
      "type": "function"
    },
    {
      "inputs": [],
      "name": "startTime",
      "outputs": [
        {
          "internalType": "uint256",
          "name": "",
          "type": "uint256"
        }
      ],
      "stateMutability": "view",
      "type": "function"
    },
    {
      "inputs": [
        {
          "internalType": "string",
          "name": "_feedback",
          "type": "string"
        }
      ],
      "name": "submitFeedback",
      "outputs": [],
      "stateMutability": "nonpayable",
      "type": "function"
    },
    {
      "inputs": [
        {
          "internalType": "bytes4",
          "name": "interfaceId",
          "type": "bytes4"
        }
      ],
      "name": "supportsInterface",
      "outputs": [
        {
          "internalType": "bool",
          "name": "",
          "type": "bool"
        }
      ],
      "stateMutability": "view",
      "type": "function"
    },
    {
      "inputs": [
        {
          "internalType": "uint256",
          "name": "_candidateId",
          "type": "uint256"
        }
      ],
      "name": "verifyCandidate",
      "outputs": [],
      "stateMutability": "nonpayable",
      "type": "function"
    },
    {
      "inputs": [
        {
          "internalType": "uint256",
          "name": "_voterId",
          "type": "uint256"
        }
      ],
      "name": "verifyVoter",
      "outputs": [],
      "stateMutability": "nonpayable",
      "type": "function"
    },
    {
      "inputs": [
        {
          "internalType": "uint256",
          "name": "_voterId",
          "type": "uint256"
        },
        {
          "internalType": "uint256",
          "name": "_id",
          "type": "uint256"
        }
      ],
      "name": "vote",
      "outputs": [],
      "stateMutability": "nonpayable",
      "type": "function"
    },
    {
      "inputs": [
        {
          "internalType": "uint256",
          "name": "_startTime",
          "type": "uint256"
        },
        {
          "internalType": "uint256",
          "name": "_duration",
          "type": "uint256"
        }
      ],
      "name": "voteTime",
      "outputs": [],
      "stateMutability": "nonpayable",
      "type": "function"
    },
    {
      "inputs": [
        {
          "internalType": "string",
          "name": "_name",
          "type": "string"
        },
        {
          "internalType": "uint256",
          "name": "_age",
          "type": "uint256"
        },
        {
          "internalType": "string",
          "name": "_gender",
          "type": "string"
        }
      ],
      "name": "voterRegister",
      "outputs": [
        {
          "internalType": "bool",
          "name": "",
          "type": "bool"
        }
      ],
      "stateMutability": "nonpayable",
      "type": "function"
    },
    {
      "inputs": [],
      "name": "votingStatus",
      "outputs": [
        {
          "internalType": "string",
          "name": "",
          "type": "string"
        }
      ],
      "stateMutability": "view",
      "type": "function"
    },
    {
      "inputs": [],
      "name": "winner",
      "outputs": [
        {
          "internalType": "address",
          "name": "",
          "type": "address"
        }
      ],
      "stateMutability": "view",
      "type": "function"
    }
  ],
  "bytecode": "0x60806040526040518060400160405280601681526020017f566f74696e6720686173206e6f742073746172746564000000000000000000008152506004908051906020019062000051929190620002fe565b50600a60055562093a80600655600160085560016009553480156200007557600080fd5b50600180819055506200008e336200009460201b60201c565b62000413565b620000c67fa49807205ce4d355092ef5a8a18f56e8913cf4a201fbe287825b095693c21775826200018560201b60201c565b620000f87f72c3eec1760bf69946625c2d4fb8e44e2c806345041960b434674fb9ab3976cf826200018560201b60201c565b6200012a7f262ba5fdd1dad9ccb8241da1a07fd1fd1c160e2ff97efc222645f94f62d5b43a826200018560201b60201c565b6001601460008373ffffffffffffffffffffffffffffffffffffffff1673ffffffffffffffffffffffffffffffffffffffff16815260200190815260200160002060006101000a81548160ff02191690831515021790555050565b6200019782826200019b60201b60201c565b5050565b620001ad82826200028c60201b60201c565b6200028857600160008084815260200190815260200160002060000160008373ffffffffffffffffffffffffffffffffffffffff1673ffffffffffffffffffffffffffffffffffffffff16815260200190815260200160002060006101000a81548160ff0219169083151502179055506200022d620002f660201b60201c565b73ffffffffffffffffffffffffffffffffffffffff168173ffffffffffffffffffffffffffffffffffffffff16837f2f8788117e7eff1d82e926ec794901d17c78024a50270940304540a733656f0d60405160405180910390a45b5050565b600080600084815260200190815260200160002060000160008373ffffffffffffffffffffffffffffffffffffffff1673ffffffffffffffffffffffffffffffffffffffff16815260200190815260200160002060009054906101000a900460ff16905092915050565b600033905090565b8280546200030c90620003ae565b90600052602060002090601f0160209004810192826200033057600085556200037c565b82601f106200034b57805160ff19168380011785556200037c565b828001600101855582156200037c579182015b828111156200037b5782518255916020019190600101906200035e565b5b5090506200038b91906200038f565b5090565b5b80821115620003aa57600081600090555060010162000390565b5090565b60006002820490506001821680620003c757607f821691505b60208210811415620003de57620003dd620003e4565b5b50919050565b7f4e487b7100000000000000000000000000000000000000000000000000000000600052602260045260246000fd5b61547880620004236000396000f3fe608060405234801561001057600080fd5b50600436106102325760003560e01c806375b238fc11610130578063aab46b7f116100b8578063d51b9e931161007c578063d51b9e9314610660578063d547741f14610690578063dfbf53ae146106ac578063e1fc52af146106ca578063e341a623146106fa57610232565b8063aab46b7f146105e4578063b384abef14610602578063bae76d631461061e578063caa6fea41461063a578063cf5ce2e71461064457610232565b80639d49257c116100ff5780639d49257c1461053e578063a0bd43e51461055c578063a217fddf14610578578063a7771ee314610596578063a94015c8146105c657610232565b806375b238fc146104a257806378e97925146104c057806391d14854146104de57806393e5fed21461050e57610232565b806336568abe116101be57806365af2ac81161018257806365af2ac81461040e57806365ca2be31461042c57806365d127011461044857806366143dee146104665780637514ecfa1461048457610232565b806336568abe1461037c578063394eaa8f14610398578063498ea441146103c8578063625339a5146103e6578063653721471461040457610232565b8063248a9ca311610205578063248a9ca3146102c457806324d7806c146102f45780632b786571146103245780632f2ff15d146103425780633197cbb61461035e57610232565b806301ffc9a71461023757806305e518c9146102675780630f7743931461028557806319f41a40146102a6575b600080fd5b610251600480360381019061024c9190613c70565b610716565b60405161025e9190614b6a565b60405180910390f35b61026f610790565b60405161027c9190615011565b60405180910390f35b61028d610808565b60405161029d949392919061502c565b60405180910390f35b6102ae6109c7565b6040516102bb9190614c05565b60405180910390f35b6102de60048036038101906102d99190613c0b565b610a55565b6040516102eb9190614b85565b60405180910390f35b61030e60048036038101906103099190613be2565b610a74565b60405161031b9190614b6a565b60405180910390f35b61032c610a94565b6040516103399190615011565b60405180910390f35b61035c60048036038101906103579190613c34565b610a9a565b005b610366610abb565b6040516103739190615011565b60405180910390f35b61039660048036038101906103919190613c34565b610ac1565b005b6103b260048036038101906103ad9190613e49565b610b44565b6040516103bf9190614b6a565b60405180910390f35b6103d0610b73565b6040516103dd9190614b48565b60405180910390f35b6103ee610efe565b6040516103fb9190614b85565b60405180910390f35b61040c610f22565b005b6104166117a8565b6040516104239190615011565b60405180910390f35b61044660048036038101906104419190613e85565b6117ae565b005b610450611920565b60405161045d9190614b6a565b60405180910390f35b61046e611987565b60405161047b9190614b6a565b60405180910390f35b61048c611c8d565b6040516104999190614b6a565b60405180910390f35b6104aa611d42565b6040516104b79190614b85565b60405180910390f35b6104c8611d66565b6040516104d59190615011565b60405180910390f35b6104f860048036038101906104f39190613c34565b611d6c565b6040516105059190614b6a565b60405180910390f35b61052860048036038101906105239190613d97565b611dd6565b6040516105359190614b6a565b60405180910390f35b6105466121af565b6040516105539190615011565b60405180910390f35b61057660048036038101906105719190613e20565b6121b5565b005b61058061236b565b60405161058d9190614b85565b60405180910390f35b6105b060048036038101906105ab9190613be2565b612372565b6040516105bd9190614b6a565b60405180910390f35b6105ce612392565b6040516105db9190614b85565b60405180910390f35b6105ec6123b6565b6040516105f99190614ac4565b60405180910390f35b61061c60048036038101906106179190613e85565b6123dc565b005b61063860048036038101906106339190613e20565b6128fa565b005b610642612ab0565b005b61065e60048036038101906106599190613cde565b612d9d565b005b61067a60048036038101906106759190613be2565b61324d565b6040516106879190614b6a565b60405180910390f35b6106aa60048036038101906106a59190613c34565b61326d565b005b6106b461328e565b6040516106c19190614ac4565b60405180910390f35b6106e460048036038101906106df9190613e49565b6132b4565b6040516106f19190614b6a565b60405180910390f35b610714600480360381019061070f9190613c99565b6132e3565b005b60007f7965db0b000000000000000000000000000000000000000000000000000000007bffffffffffffffffffffffffffffffffffffffffffffffffffffffff1916827bffffffffffffffffffffffffffffffffffffffffffffffffffffffff191614806107895750610788826133b1565b5b9050919050565b60006001151561079e611c8d565b1515141561080057600f6000600754815260200190815260200160002060003373ffffffffffffffffffffffffffffffffffffffff1673ffffffffffffffffffffffffffffffffffffffff168152602001908152602001600020549050610805565b600090505b90565b600060608060008060106000600754815260200190815260200160002060008154811061085e577f4e487b7100000000000000000000000000000000000000000000000000000000600052603260045260246000fd5b90600052602060002090600402019050806000015481600101826002018360030160009054906101000a900473ffffffffffffffffffffffffffffffffffffffff168280546108ac906152fc565b80601f01602080910402602001604051908101604052809291908181526020018280546108d8906152fc565b80156109255780601f106108fa57610100808354040283529160200191610925565b820191906000526020600020905b81548152906001019060200180831161090857829003601f168201915b50505050509250818054610938906152fc565b80601f0160208091040260200160405190810160405280929190818152602001828054610964906152fc565b80156109b15780601f10610986576101008083540402835291602001916109b1565b820191906000526020600020905b81548152906001019060200180831161099457829003601f168201915b5050505050915094509450945094505090919293565b600480546109d4906152fc565b80601f0160208091040260200160405190810160405280929190818152602001828054610a00906152fc565b8015610a4d5780601f10610a2257610100808354040283529160200191610a4d565b820191906000526020600020905b815481529060010190602001808311610a3057829003601f168201915b505050505081565b6000806000838152602001908152602001600020600101549050919050565b60146020528060005260406000206000915054906101000a900460ff1681565b60075481565b610aa382610a55565b610aac8161341b565b610ab6838361342f565b505050565b600b5481565b610ac961350f565b73ffffffffffffffffffffffffffffffffffffffff168173ffffffffffffffffffffffffffffffffffffffff1614610b36576040517f08c379a0000000000000000000000000000000000000000000000000000000008152600401610b2d90614fa1565b60405180910390fd5b610b408282613517565b5050565b60126020528160005260406000206020528060005260406000206000915091509054906101000a900460ff1681565b606060006001600954610b8691906151de565b67ffffffffffffffff811115610bc5577f4e487b7100000000000000000000000000000000000000000000000000000000600052604160045260246000fd5b604051908082528060200260200182016040528015610bfe57816020015b610beb6139fd565b815260200190600190039081610be35790505b5090506000600190505b600954811015610ef657600d60006007548152602001908152602001600020600082815260200190815260200160002060405180610120016040529081600082018054610c54906152fc565b80601f0160208091040260200160405190810160405280929190818152602001828054610c80906152fc565b8015610ccd5780601f10610ca257610100808354040283529160200191610ccd565b820191906000526020600020905b815481529060010190602001808311610cb057829003601f168201915b50505050508152602001600182018054610ce6906152fc565b80601f0160208091040260200160405190810160405280929190818152602001828054610d12906152fc565b8015610d5f5780601f10610d3457610100808354040283529160200191610d5f565b820191906000526020600020905b815481529060010190602001808311610d4257829003601f168201915b5050505050815260200160028201548152602001600382018054610d82906152fc565b80601f0160208091040260200160405190810160405280929190818152602001828054610dae906152fc565b8015610dfb5780601f10610dd057610100808354040283529160200191610dfb565b820191906000526020600020905b815481529060010190602001808311610dde57829003601f168201915b50505050508152602001600482015481526020016005820160009054906101000a900473ffffffffffffffffffffffffffffffffffffffff1673ffffffffffffffffffffffffffffffffffffffff1673ffffffffffffffffffffffffffffffffffffffff16815260200160068201548152602001600782015481526020016008820160009054906101000a900460ff16151515158152505082600183610ea191906151de565b81518110610ed8577f4e487b7100000000000000000000000000000000000000000000000000000000600052603260045260246000fd5b60200260200101819052508080610eee9061532e565b915050610c08565b508091505090565b7f262ba5fdd1dad9ccb8241da1a07fd1fd1c160e2ff97efc222645f94f62d5b43a81565b600260009054906101000a900473ffffffffffffffffffffffffffffffffffffffff1673ffffffffffffffffffffffffffffffffffffffff163373ffffffffffffffffffffffffffffffffffffffff1614610fb2576040517f08c379a0000000000000000000000000000000000000000000000000000000008152600401610fa990614e81565b60405180910390fd5b600b54421180610fcf5750601360009054906101000a900460ff16155b61100e576040517f08c379a000000000000000000000000000000000000000000000000000000000815260040161100590614de1565b60405180910390fd5b6000611018610b73565b9050600081511161105e576040517f08c379a000000000000000000000000000000000000000000000000000000000815260040161105590614ee1565b60405180910390fd5b60008060005b835181101561111757828482815181106110a7577f4e487b7100000000000000000000000000000000000000000000000000000000600052603260045260246000fd5b602002602001015160c001511115611104578381815181106110f2577f4e487b7100000000000000000000000000000000000000000000000000000000600052603260045260246000fd5b602002602001015160c0015192508091505b808061110f9061532e565b915050611064565b506000821161115b576040517f08c379a000000000000000000000000000000000000000000000000000000000815260040161115290614d21565b60405180910390fd5b828181518110611194577f4e487b7100000000000000000000000000000000000000000000000000000000600052603260045260246000fd5b602002602001015160a00151600360006101000a81548173ffffffffffffffffffffffffffffffffffffffff021916908373ffffffffffffffffffffffffffffffffffffffff16021790555060106000600754815260200190815260200160002060405180608001604052806007548152602001858481518110611241577f4e487b7100000000000000000000000000000000000000000000000000000000600052603260045260246000fd5b602002602001015160000151815260200185848151811061128b577f4e487b7100000000000000000000000000000000000000000000000000000000600052603260045260246000fd5b60200260200101516020015181526020018584815181106112d5577f4e487b7100000000000000000000000000000000000000000000000000000000600052603260045260246000fd5b602002602001015160a0015173ffffffffffffffffffffffffffffffffffffffff168152509080600181540180825580915050600190039060005260206000209060040201600090919091909150600082015181600001556020820151816001019080519060200190611349929190613a61565b506040820151816002019080519060200190611366929190613a61565b5060608201518160030160006101000a81548173ffffffffffffffffffffffffffffffffffffffff021916908373ffffffffffffffffffffffffffffffffffffffff16021790555050507f82105a8392865f17a2b2925dbf33bea1ae1f6098b4516d2bc3f54fb78a117ed36040518060800160405280600754815260200185848151811061141d577f4e487b7100000000000000000000000000000000000000000000000000000000600052603260045260246000fd5b6020026020010151600001518152602001858481518110611467577f4e487b7100000000000000000000000000000000000000000000000000000000600052603260045260246000fd5b60200260200101516020015181526020018584815181106114b1577f4e487b7100000000000000000000000000000000000000000000000000000000600052603260045260246000fd5b602002602001015160a0015173ffffffffffffffffffffffffffffffffffffffff16815250600260009054906101000a900473ffffffffffffffffffffffffffffffffffffffff16604051611507929190614fe1565b60405180910390a16000600260006101000a81548173ffffffffffffffffffffffffffffffffffffffff021916908373ffffffffffffffffffffffffffffffffffffffff160217905550600160088190555060016009819055506000600190505b60095481101561163957600d600060075481526020019081526020016000206000828152602001908152602001600020600080820160006115a99190613ae7565b6001820160006115b99190613ae7565b60028201600090556003820160006115d19190613ae7565b60048201600090556005820160006101000a81549073ffffffffffffffffffffffffffffffffffffffff0219169055600682016000905560078201600090556008820160006101000a81549060ff0219169055505080806116319061532e565b915050611568565b506000600190505b60085481101561170257600c600060075481526020019081526020016000206000828152602001908152602001600020600080820160006116829190613ae7565b600182016000905560028201600090556003820160006116a29190613ae7565b60048201600090556005820160006101000a81549073ffffffffffffffffffffffffffffffffffffffff021916905560068201600090556007820160006101000a81549060ff0219169055505080806116fa9061532e565b915050611641565b506000601360006101000a81548160ff0219169083151502179055506040518060400160405280601081526020017f566f74696e672068617320656e6465640000000000000000000000000000000081525060049080519060200190611769929190613a61565b507f81eb7415440ff8e6c8e92606fd3b0e5e6a5c99ea90cdb63b41aec54e897312b360075460405161179b9190615011565b60405180910390a1505050565b60055481565b60001515601360009054906101000a900460ff16151514806117d15750600b5442115b8061180257506118017fa49807205ce4d355092ef5a8a18f56e8913cf4a201fbe287825b095693c2177533611d6c565b5b611841576040517f08c379a000000000000000000000000000000000000000000000000000000000815260040161183890614ea1565b60405180910390fd5b600654811115611886576040517f08c379a000000000000000000000000000000000000000000000000000000000815260040161187d90614cc1565b60405180910390fd5b8142611892919061512e565b600a8190555080600a546118a6919061512e565b600b819055506000601360006101000a81548160ff021916908315150217905550600760008154809291906118da9061532e565b91905055507ff8c022056754dbacca05aff710dc315a2fa7699ae9309fda403cd1e55c11d40f600a54600b5460405161191492919061507f565b60405180910390a15050565b6000600e6000600754815260200190815260200160002060003373ffffffffffffffffffffffffffffffffffffffff1673ffffffffffffffffffffffffffffffffffffffff16815260200190815260200160002060009054906101000a900460ff16905090565b6000801515601360009054906101000a900460ff16151514806119ab5750600b5442115b806119dc57506119db7fa49807205ce4d355092ef5a8a18f56e8913cf4a201fbe287825b095693c2177533611d6c565b5b611a1b576040517f08c379a0000000000000000000000000000000000000000000000000000000008152600401611a1290614ea1565b60405180910390fd5b6000600260006101000a81548173ffffffffffffffffffffffffffffffffffffffff021916908373ffffffffffffffffffffffffffffffffffffffff1602179055506000601360006101000a81548160ff0219169083151502179055506040518060400160405280601081526020017f566f74696e672068617320656e6465640000000000000000000000000000000081525060049080519060200190611ac3929190613a61565b506000600a819055506000600b81905550600160088190555060016009819055506000600190505b600954811015611bbc57600d60006007548152602001908152602001600020600082815260200190815260200160002060008082016000611b2c9190613ae7565b600182016000611b3c9190613ae7565b6002820160009055600382016000611b549190613ae7565b60048201600090556005820160006101000a81549073ffffffffffffffffffffffffffffffffffffffff0219169055600682016000905560078201600090556008820160006101000a81549060ff021916905550508080611bb49061532e565b915050611aeb565b506000600190505b600854811015611c8557600c60006007548152602001908152602001600020600082815260200190815260200160002060008082016000611c059190613ae7565b60018201600090556002820160009055600382016000611c259190613ae7565b60048201600090556005820160006101000a81549073ffffffffffffffffffffffffffffffffffffffff021916905560068201600090556007820160006101000a81549060ff021916905550508080611c7d9061532e565b915050611bc4565b506001905090565b600080600190505b600854811015611d3957600c60006007548152602001908152602001600020600082815260200190815260200160002060050160009054906101000a900473ffffffffffffffffffffffffffffffffffffffff1673ffffffffffffffffffffffffffffffffffffffff163373ffffffffffffffffffffffffffffffffffffffff161415611d26576001915050611d3f565b8080611d319061532e565b915050611c95565b50600090505b90565b7fa49807205ce4d355092ef5a8a18f56e8913cf4a201fbe287825b095693c2177581565b600a5481565b600080600084815260200190815260200160002060000160008373ffffffffffffffffffffffffffffffffffffffff1673ffffffffffffffffffffffffffffffffffffffff16815260200190815260200160002060009054906101000a900460ff16905092915050565b600042600b5411611e1c576040517f08c379a0000000000000000000000000000000000000000000000000000000008152600401611e1390614fc1565b60405180910390fd5b611e246135f8565b60126000600754815260200190815260200160002060003373ffffffffffffffffffffffffffffffffffffffff1673ffffffffffffffffffffffffffffffffffffffff16815260200190815260200160002060009054906101000a900460ff1615611ec4576040517f08c379a0000000000000000000000000000000000000000000000000000000008152600401611ebb90614ce1565b60405180910390fd5b6012841015611f08576040517f08c379a0000000000000000000000000000000000000000000000000000000008152600401611eff90614d61565b60405180910390fd5b60405180610100016040528087878080601f016020809104026020016040519081016040528093929190818152602001838380828437600081840152601f19601f820116905080830192505050505050508152602001858152602001600854815260200184848080601f016020809104026020016040519081016040528093929190818152602001838380828437600081840152601f19601f820116905080830192505050505050508152602001600081526020013373ffffffffffffffffffffffffffffffffffffffff168152602001600754815260200160001515815250600c6000600754815260200190815260200160002060006008548152602001908152602001600020600082015181600001908051906020019061202c929190613a61565b506020820151816001015560408201518160020155606082015181600301908051906020019061205d929190613a61565b506080820151816004015560a08201518160050160006101000a81548173ffffffffffffffffffffffffffffffffffffffff021916908373ffffffffffffffffffffffffffffffffffffffff16021790555060c0820151816006015560e08201518160070160006101000a81548160ff021916908315150217905550905050600160126000600754815260200190815260200160002060003373ffffffffffffffffffffffffffffffffffffffff1673ffffffffffffffffffffffffffffffffffffffff16815260200190815260200160002060006101000a81548160ff0219169083151502179055507ff16ce2c2236e2c6e3df646f80d657bceef4cd7f3a240c47e82adfa17a5f472413360075460405161217a929190614b1f565b60405180910390a1600860008154809291906121959061532e565b9190505550600190506121a6613648565b95945050505050565b60065481565b601460003373ffffffffffffffffffffffffffffffffffffffff1673ffffffffffffffffffffffffffffffffffffffff16815260200190815260200160002060009054906101000a900460ff16612241576040517f08c379a000000000000000000000000000000000000000000000000000000000815260040161223890614ec1565b60405180910390fd5b6008548110612285576040517f08c379a000000000000000000000000000000000000000000000000000000000815260040161227c90614e01565b60405180910390fd5b6001600c60006007548152602001908152602001600020600083815260200190815260200160002060070160006101000a81548160ff021916908315150217905550600160156000600c60006007548152602001908152602001600020600085815260200190815260200160002060050160009054906101000a900473ffffffffffffffffffffffffffffffffffffffff1673ffffffffffffffffffffffffffffffffffffffff1673ffffffffffffffffffffffffffffffffffffffff16815260200190815260200160002060006101000a81548160ff02191690831515021790555050565b6000801b81565b60156020528060005260406000206000915054906101000a900460ff1681565b7f72c3eec1760bf69946625c2d4fb8e44e2c806345041960b434674fb9ab3976cf81565b600260009054906101000a900473ffffffffffffffffffffffffffffffffffffffff1681565b601560003373ffffffffffffffffffffffffffffffffffffffff1673ffffffffffffffffffffffffffffffffffffffff16815260200190815260200160002060009054906101000a900460ff16612468576040517f08c379a000000000000000000000000000000000000000000000000000000000815260040161245f90614dc1565b60405180910390fd5b42600b54116124ac576040517f08c379a00000000000000000000000000000000000000000000000000000000081526004016124a390614fc1565b60405180910390fd5b42600b5411806124cf575060011515601360009054906101000a900460ff161515145b61250e576040517f08c379a000000000000000000000000000000000000000000000000000000000815260040161250590614d81565b60405180910390fd5b6125166135f8565b600a54421015801561252a5750600b544211155b612569576040517f08c379a000000000000000000000000000000000000000000000000000000000815260040161256090614d41565b60405180910390fd5b6000600c60006007548152602001908152602001600020600084815260200190815260200160002060040154146125d5576040517f08c379a00000000000000000000000000000000000000000000000000000000081526004016125cc90614f81565b60405180910390fd5b3373ffffffffffffffffffffffffffffffffffffffff16600c60006007548152602001908152602001600020600084815260200190815260200160002060050160009054906101000a900473ffffffffffffffffffffffffffffffffffffffff1673ffffffffffffffffffffffffffffffffffffffff161461268c576040517f08c379a000000000000000000000000000000000000000000000000000000000815260040161268390614ca1565b60405180910390fd5b6002600954116126d1576040517f08c379a00000000000000000000000000000000000000000000000000000000081526004016126c890614d01565b60405180910390fd5b6009548110612715576040517f08c379a000000000000000000000000000000000000000000000000000000000815260040161270c90614e41565b60405180910390fd5b600d60006007548152602001908152602001600020600082815260200190815260200160002060080160009054906101000a900460ff1661278b576040517f08c379a000000000000000000000000000000000000000000000000000000000815260040161278290614f61565b60405180910390fd5b80600c600060075481526020019081526020016000206000848152602001908152602001600020600401819055506001600e6000600754815260200190815260200160002060003373ffffffffffffffffffffffffffffffffffffffff1673ffffffffffffffffffffffffffffffffffffffff16815260200190815260200160002060006101000a81548160ff0219169083151502179055507f72d2a5cc14f63a6f55b143540846592d98ef84b60569c948ba754e22f9a963e2600c6000600754815260200190815260200160002060008481526020019081526020016000206000018233600260009054906101000a900473ffffffffffffffffffffffffffffffffffffffff166007546040516128a7959493929190614c27565b60405180910390a1600d60006007548152602001908152602001600020600082815260200190815260200160002060060160008154809291906128e99061532e565b91905055506128f6613648565b5050565b601460003373ffffffffffffffffffffffffffffffffffffffff1673ffffffffffffffffffffffffffffffffffffffff16815260200190815260200160002060009054906101000a900460ff16612986576040517f08c379a000000000000000000000000000000000000000000000000000000000815260040161297d90614ec1565b60405180910390fd5b60095481106129ca576040517f08c379a00000000000000000000000000000000000000000000000000000000081526004016129c190614f01565b60405180910390fd5b6001600d60006007548152602001908152602001600020600083815260200190815260200160002060080160006101000a81548160ff021916908315150217905550600160166000600d60006007548152602001908152602001600020600085815260200190815260200160002060050160009054906101000a900473ffffffffffffffffffffffffffffffffffffffff1673ffffffffffffffffffffffffffffffffffffffff1673ffffffffffffffffffffffffffffffffffffffff16815260200190815260200160002060006101000a81548160ff02191690831515021790555050565b600260009054906101000a900473ffffffffffffffffffffffffffffffffffffffff1673ffffffffffffffffffffffffffffffffffffffff163373ffffffffffffffffffffffffffffffffffffffff1614612b40576040517f08c379a0000000000000000000000000000000000000000000000000000000008152600401612b3790614e21565b60405180910390fd5b6040518060400160405280600f81526020017f566f74696e6720697320656e646564000000000000000000000000000000000081525060049080519060200190612b8b929190613a61565b506000601360006101000a81548160ff0219169083151502179055506000600260006101000a81548173ffffffffffffffffffffffffffffffffffffffff021916908373ffffffffffffffffffffffffffffffffffffffff160217905550600160088190555060016009819055506000600190505b600954811015612cd157600d60006007548152602001908152602001600020600082815260200190815260200160002060008082016000612c419190613ae7565b600182016000612c519190613ae7565b6002820160009055600382016000612c699190613ae7565b60048201600090556005820160006101000a81549073ffffffffffffffffffffffffffffffffffffffff0219169055600682016000905560078201600090556008820160006101000a81549060ff021916905550508080612cc99061532e565b915050612c00565b506000600190505b600854811015612d9a57600c60006007548152602001908152602001600020600082815260200190815260200160002060008082016000612d1a9190613ae7565b60018201600090556002820160009055600382016000612d3a9190613ae7565b60048201600090556005820160006101000a81549073ffffffffffffffffffffffffffffffffffffffff021916905560068201600090556007820160006101000a81549060ff021916905550508080612d929061532e565b915050612cd9565b50565b42600b5411612de1576040517f08c379a0000000000000000000000000000000000000000000000000000000008152600401612dd890614fc1565b60405180910390fd5b612de96135f8565b60116000600754815260200190815260200160002060003373ffffffffffffffffffffffffffffffffffffffff1673ffffffffffffffffffffffffffffffffffffffff16815260200190815260200160002060009054906101000a900460ff1615612e89576040517f08c379a0000000000000000000000000000000000000000000000000000000008152600401612e8090614ce1565b60405180910390fd5b6012831015612ecd576040517f08c379a0000000000000000000000000000000000000000000000000000000008152600401612ec490614e61565b60405180910390fd5b6005546009541115612f14576040517f08c379a0000000000000000000000000000000000000000000000000000000008152600401612f0b90614f21565b60405180910390fd5b60405180610120016040528088888080601f016020809104026020016040519081016040528093929190818152602001838380828437600081840152601f19601f82011690508083019250505050505050815260200186868080601f016020809104026020016040519081016040528093929190818152602001838380828437600081840152601f19601f82011690508083019250505050505050815260200184815260200183838080601f016020809104026020016040519081016040528093929190818152602001838380828437600081840152601f19601f82011690508083019250505050505050815260200160095481526020013373ffffffffffffffffffffffffffffffffffffffff16815260200160008152602001600754815260200160001515815250600d60006007548152602001908152602001600020600060095481526020019081526020016000206000820151816000019080519060200190613082929190613a61565b50602082015181600101908051906020019061309f929190613a61565b506040820151816002015560608201518160030190805190602001906130c6929190613a61565b506080820151816004015560a08201518160050160006101000a81548173ffffffffffffffffffffffffffffffffffffffff021916908373ffffffffffffffffffffffffffffffffffffffff16021790555060c0820151816006015560e082015181600701556101008201518160080160006101000a81548160ff021916908315150217905550905050600160116000600754815260200190815260200160002060003373ffffffffffffffffffffffffffffffffffffffff1673ffffffffffffffffffffffffffffffffffffffff16815260200190815260200160002060006101000a81548160ff0219169083151502179055507f87a249fdf210f5fed9ed0c146f8321194c7733a1f9d0ea1b052b9e63060b92c887878787600954600260009054906101000a900473ffffffffffffffffffffffffffffffffffffffff1660075460405161321c9796959493929190614ba0565b60405180910390a1600960008154809291906132379061532e565b9190505550613244613648565b50505050505050565b60166020528060005260406000206000915054906101000a900460ff1681565b61327682610a55565b61327f8161341b565b6132898383613517565b505050565b600360009054906101000a900473ffffffffffffffffffffffffffffffffffffffff1681565b60116020528160005260406000206020528060005260406000206000915091509054906101000a900460ff1681565b42600b5411613327576040517f08c379a000000000000000000000000000000000000000000000000000000000815260040161331e90614fc1565b60405180910390fd5b61332f611c8d565b61336e576040517f08c379a000000000000000000000000000000000000000000000000000000000815260040161336590614da1565b60405180910390fd5b7fa44edc2c3122d75f6eca14609b38b1f9e84dea9f4bc89419f056771b59c5014c3383836007546040516133a59493929190614adf565b60405180910390a15050565b60007f01ffc9a7000000000000000000000000000000000000000000000000000000007bffffffffffffffffffffffffffffffffffffffffffffffffffffffff1916827bffffffffffffffffffffffffffffffffffffffffffffffffffffffff1916149050919050565b61342c8161342761350f565b613651565b50565b6134398282611d6c565b61350b57600160008084815260200190815260200160002060000160008373ffffffffffffffffffffffffffffffffffffffff1673ffffffffffffffffffffffffffffffffffffffff16815260200190815260200160002060006101000a81548160ff0219169083151502179055506134b061350f565b73ffffffffffffffffffffffffffffffffffffffff168173ffffffffffffffffffffffffffffffffffffffff16837f2f8788117e7eff1d82e926ec794901d17c78024a50270940304540a733656f0d60405160405180910390a45b5050565b600033905090565b6135218282611d6c565b156135f457600080600084815260200190815260200160002060000160008373ffffffffffffffffffffffffffffffffffffffff1673ffffffffffffffffffffffffffffffffffffffff16815260200190815260200160002060006101000a81548160ff02191690831515021790555061359961350f565b73ffffffffffffffffffffffffffffffffffffffff168173ffffffffffffffffffffffffffffffffffffffff16837ff6391f5c32d9c69d2a47ea670b442974b53935d1edc7fd64eb21e047a839171b60405160405180910390a45b5050565b6002600154141561363e576040517f08c379a000000000000000000000000000000000000000000000000000000000815260040161363590614f41565b60405180910390fd5b6002600181905550565b60018081905550565b61365b8282611d6c565b6136d257613668816136d6565b6136768360001c6020613703565b604051602001613687929190614a8a565b6040516020818303038152906040526040517f08c379a00000000000000000000000000000000000000000000000000000000081526004016136c99190614c05565b60405180910390fd5b5050565b60606136fc8273ffffffffffffffffffffffffffffffffffffffff16601460ff16613703565b9050919050565b6060600060028360026137169190615184565b613720919061512e565b67ffffffffffffffff81111561375f577f4e487b7100000000000000000000000000000000000000000000000000000000600052604160045260246000fd5b6040519080825280601f01601f1916602001820160405280156137915781602001600182028036833780820191505090505b5090507f3000000000000000000000000000000000000000000000000000000000000000816000815181106137ef577f4e487b7100000000000000000000000000000000000000000000000000000000600052603260045260246000fd5b60200101907effffffffffffffffffffffffffffffffffffffffffffffffffffffffffffff1916908160001a9053507f780000000000000000000000000000000000000000000000000000000000000081600181518110613879577f4e487b7100000000000000000000000000000000000000000000000000000000600052603260045260246000fd5b60200101907effffffffffffffffffffffffffffffffffffffffffffffffffffffffffffff1916908160001a905350600060018460026138b99190615184565b6138c3919061512e565b90505b60018111156139af577f3031323334353637383961626364656600000000000000000000000000000000600f86166010811061392b577f4e487b7100000000000000000000000000000000000000000000000000000000600052603260045260246000fd5b1a60f81b828281518110613968577f4e487b7100000000000000000000000000000000000000000000000000000000600052603260045260246000fd5b60200101907effffffffffffffffffffffffffffffffffffffffffffffffffffffffffffff1916908160001a905350600485901c9450806139a8906152d2565b90506138c6565b50600084146139f3576040517f08c379a00000000000000000000000000000000000000000000000000000000081526004016139ea90614c81565b60405180910390fd5b8091505092915050565b6040518061012001604052806060815260200160608152602001600081526020016060815260200160008152602001600073ffffffffffffffffffffffffffffffffffffffff16815260200160008152602001600081526020016000151581525090565b828054613a6d906152fc565b90600052602060002090601f016020900481019282613a8f5760008555613ad6565b82601f10613aa857805160ff1916838001178555613ad6565b82800160010185558215613ad6579182015b82811115613ad5578251825591602001919060010190613aba565b5b509050613ae39190613b27565b5090565b508054613af3906152fc565b6000825580601f10613b055750613b24565b601f016020900490600052602060002090810190613b239190613b27565b5b50565b5b80821115613b40576000816000905550600101613b28565b5090565b600081359050613b53816153e6565b92915050565b600081359050613b68816153fd565b92915050565b600081359050613b7d81615414565b92915050565b60008083601f840112613b9557600080fd5b8235905067ffffffffffffffff811115613bae57600080fd5b602083019150836001820283011115613bc657600080fd5b9250929050565b600081359050613bdc8161542b565b92915050565b600060208284031215613bf457600080fd5b6000613c0284828501613b44565b91505092915050565b600060208284031215613c1d57600080fd5b6000613c2b84828501613b59565b91505092915050565b60008060408385031215613c4757600080fd5b6000613c5585828601613b59565b9250506020613c6685828601613b44565b9150509250929050565b600060208284031215613c8257600080fd5b6000613c9084828501613b6e565b91505092915050565b60008060208385031215613cac57600080fd5b600083013567ffffffffffffffff811115613cc657600080fd5b613cd285828601613b83565b92509250509250929050565b60008060008060008060006080888a031215613cf957600080fd5b600088013567ffffffffffffffff811115613d1357600080fd5b613d1f8a828b01613b83565b9750975050602088013567ffffffffffffffff811115613d3e57600080fd5b613d4a8a828b01613b83565b95509550506040613d5d8a828b01613bcd565b935050606088013567ffffffffffffffff811115613d7a57600080fd5b613d868a828b01613b83565b925092505092959891949750929550565b600080600080600060608688031215613daf57600080fd5b600086013567ffffffffffffffff811115613dc957600080fd5b613dd588828901613b83565b95509550506020613de888828901613bcd565b935050604086013567ffffffffffffffff811115613e0557600080fd5b613e1188828901613b83565b92509250509295509295909350565b600060208284031215613e3257600080fd5b6000613e4084828501613bcd565b91505092915050565b60008060408385031215613e5c57600080fd5b6000613e6a85828601613bcd565b9250506020613e7b85828601613b44565b9150509250929050565b60008060408385031215613e9857600080fd5b6000613ea685828601613bcd565b9250506020613eb785828601613bcd565b9150509250929050565b6000613ecd838361492f565b905092915050565b613ede81615212565b82525050565b613eed81615212565b82525050565b6000613efe826150cd565b613f0881856150f0565b935083602082028501613f1a856150a8565b8060005b85811015613f565784840389528151613f378582613ec1565b9450613f42836150e3565b925060208a01995050600181019050613f1e565b50829750879550505050505092915050565b613f7181615224565b82525050565b613f8081615224565b82525050565b613f8f81615230565b82525050565b6000613fa18385615112565b9350613fae838584615290565b613fb7836153d5565b840190509392505050565b6000613fcd826150d8565b613fd78185615101565b9350613fe781856020860161529f565b613ff0816153d5565b840191505092915050565b6000614006826150d8565b6140108185615112565b935061402081856020860161529f565b614029816153d5565b840191505092915050565b600061403f826150d8565b6140498185615123565b935061405981856020860161529f565b80840191505092915050565b60008154614072816152fc565b61407c8186615112565b9450600182166000811461409757600181146140a9576140dc565b60ff19831686526020860193506140dc565b6140b2856150b8565b60005b838110156140d4578154818901526001820191506020810190506140b5565b808801955050505b50505092915050565b60006140f2602083615112565b91507f537472696e67733a20686578206c656e67746820696e73756666696369656e746000830152602082019050919050565b6000614132601383615112565b91507f596f7520617265206e6f74206120766f746572000000000000000000000000006000830152602082019050919050565b6000614172602783615112565b91507f566f74696e67206475726174696f6e2065786365656473206d6178696d756d2060008301527f616c6c6f776564000000000000000000000000000000000000000000000000006020830152604082019050919050565b60006141d8601b83615112565b91507f596f75206861766520616c7265616479207265676973746572656400000000006000830152602082019050919050565b6000614218601f83615112565b91507f546865726520617265206e6f2063616e6469646174657320746f20766f7465006000830152602082019050919050565b6000614258600d83615112565b91507f4e6f20766f7465732063617374000000000000000000000000000000000000006000830152602082019050919050565b6000614298601183615112565b91507f566f74696e67206e6f74206163746976650000000000000000000000000000006000830152602082019050919050565b60006142d8601c83615112565b91507f596f7520617265206e6f7420656c696769626c6520746f20766f7465000000006000830152602082019050919050565b6000614318600e83615112565b91507f566f74696e67206973206f7665720000000000000000000000000000000000006000830152602082019050919050565b6000614358601683615112565b91507f4e6f742061207265676973746572656420766f746572000000000000000000006000830152602082019050919050565b6000614398602c83615112565b91507f4f6e6c7920766572696669656420766f746572732063616e20706572666f726d60008301527f207468697320616374696f6e00000000000000000000000000000000000000006020830152604082019050919050565b60006143fe601383615112565b91507f566f74696e67207374696c6c20616374697665000000000000000000000000006000830152602082019050919050565b600061443e601083615112565b91507f496e76616c696420766f746572204944000000000000000000000000000000006000830152602082019050919050565b600061447e601f83615112565b91507f596f7520617265206e6f7420656c656374696f6e20636f6d6d697373696f6e006000830152602082019050919050565b60006144be601883615112565b91507f43616e64696461746520646f6573206e6f7420657869737400000000000000006000830152602082019050919050565b60006144fe602683615112565b91507f596f7520617265206e6f7420656c696769626c6520746f20626520612063616e60008301527f64696461746500000000000000000000000000000000000000000000000000006020830152604082019050919050565b6000614564601783615112565b91507f4f6e6c7920636f6d6d697373696f6e20616c6c6f7765640000000000000000006000830152602082019050919050565b60006145a4601b83615112565b91507f50726576696f757320766f74696e6720696e2070726f677265737300000000006000830152602082019050919050565b60006145e4602283615112565b91507f4f6e6c792061646d696e2063616e20706572666f726d2074686973206163746960008301527f6f6e0000000000000000000000000000000000000000000000000000000000006020830152604082019050919050565b600061464a601883615112565b91507f4e6f2063616e64696461746573207265676973746572656400000000000000006000830152602082019050919050565b600061468a601783615123565b91507f416363657373436f6e74726f6c3a206163636f756e74200000000000000000006000830152601782019050919050565b60006146ca601483615112565b91507f496e76616c69642063616e6469646174652049440000000000000000000000006000830152602082019050919050565b600061470a602483615112565b91507f4d6178696d756d206e756d626572206f662063616e646964617465732072656160008301527f63686564000000000000000000000000000000000000000000000000000000006020830152604082019050919050565b6000614770601f83615112565b91507f5265656e7472616e637947756172643a207265656e7472616e742063616c6c006000830152602082019050919050565b60006147b0601983615112565b91507f43616e646964617465206973206e6f74207665726966696564000000000000006000830152602082019050919050565b60006147f0601683615112565b91507f596f75206861766520616c726561647920766f746564000000000000000000006000830152602082019050919050565b6000614830601183615123565b91507f206973206d697373696e6720726f6c65200000000000000000000000000000006000830152601182019050919050565b6000614870602f83615112565b91507f416363657373436f6e74726f6c3a2063616e206f6e6c792072656e6f756e636560008301527f20726f6c657320666f722073656c6600000000000000000000000000000000006020830152604082019050919050565b60006148d6603083615112565b91507f566f74696e6720686173206e6f7420737461727465642c20737461727420612060008301527f6e657720566f74696e6720706f6c6c2e000000000000000000000000000000006020830152604082019050919050565b600061012083016000830151848203600086015261494d8282613fc2565b915050602083015184820360208601526149678282613fc2565b915050604083015161497c6040860182614a6c565b50606083015184820360608601526149948282613fc2565b91505060808301516149a96080860182614a6c565b5060a08301516149bc60a0860182613ed5565b5060c08301516149cf60c0860182614a6c565b5060e08301516149e260e0860182614a6c565b506101008301516149f7610100860182613f68565b508091505092915050565b6000608083016000830151614a1a6000860182614a6c565b5060208301518482036020860152614a328282613fc2565b91505060408301518482036040860152614a4c8282613fc2565b9150506060830151614a616060860182613ed5565b508091505092915050565b614a7581615286565b82525050565b614a8481615286565b82525050565b6000614a958261467d565b9150614aa18285614034565b9150614aac82614823565b9150614ab88284614034565b91508190509392505050565b6000602082019050614ad96000830184613ee4565b92915050565b6000606082019050614af46000830187613ee4565b8181036020830152614b07818587613f95565b9050614b166040830184614a7b565b95945050505050565b6000604082019050614b346000830185613ee4565b614b416020830184614a7b565b9392505050565b60006020820190508181036000830152614b628184613ef3565b905092915050565b6000602082019050614b7f6000830184613f77565b92915050565b6000602082019050614b9a6000830184613f86565b92915050565b600060a0820190508181036000830152614bbb81898b613f95565b90508181036020830152614bd0818789613f95565b9050614bdf6040830186614a7b565b614bec6060830185613ee4565b614bf96080830184614a7b565b98975050505050505050565b60006020820190508181036000830152614c1f8184613ffb565b905092915050565b600060a0820190508181036000830152614c418188614065565b9050614c506020830187614a7b565b614c5d6040830186613ee4565b614c6a6060830185613ee4565b614c776080830184614a7b565b9695505050505050565b60006020820190508181036000830152614c9a816140e5565b9050919050565b60006020820190508181036000830152614cba81614125565b9050919050565b60006020820190508181036000830152614cda81614165565b9050919050565b60006020820190508181036000830152614cfa816141cb565b9050919050565b60006020820190508181036000830152614d1a8161420b565b9050919050565b60006020820190508181036000830152614d3a8161424b565b9050919050565b60006020820190508181036000830152614d5a8161428b565b9050919050565b60006020820190508181036000830152614d7a816142cb565b9050919050565b60006020820190508181036000830152614d9a8161430b565b9050919050565b60006020820190508181036000830152614dba8161434b565b9050919050565b60006020820190508181036000830152614dda8161438b565b9050919050565b60006020820190508181036000830152614dfa816143f1565b9050919050565b60006020820190508181036000830152614e1a81614431565b9050919050565b60006020820190508181036000830152614e3a81614471565b9050919050565b60006020820190508181036000830152614e5a816144b1565b9050919050565b60006020820190508181036000830152614e7a816144f1565b9050919050565b60006020820190508181036000830152614e9a81614557565b9050919050565b60006020820190508181036000830152614eba81614597565b9050919050565b60006020820190508181036000830152614eda816145d7565b9050919050565b60006020820190508181036000830152614efa8161463d565b9050919050565b60006020820190508181036000830152614f1a816146bd565b9050919050565b60006020820190508181036000830152614f3a816146fd565b9050919050565b60006020820190508181036000830152614f5a81614763565b9050919050565b60006020820190508181036000830152614f7a816147a3565b9050919050565b60006020820190508181036000830152614f9a816147e3565b9050919050565b60006020820190508181036000830152614fba81614863565b9050919050565b60006020820190508181036000830152614fda816148c9565b9050919050565b60006040820190508181036000830152614ffb8185614a02565b905061500a6020830184613ee4565b9392505050565b60006020820190506150266000830184614a7b565b92915050565b60006080820190506150416000830187614a7b565b81810360208301526150538186613ffb565b905081810360408301526150678185613ffb565b90506150766060830184613ee4565b95945050505050565b60006040820190506150946000830185614a7b565b6150a16020830184614a7b565b9392505050565b6000819050602082019050919050565b60008190508160005260206000209050919050565b600081519050919050565b600081519050919050565b6000602082019050919050565b600082825260208201905092915050565b600082825260208201905092915050565b600082825260208201905092915050565b600081905092915050565b600061513982615286565b915061514483615286565b9250827fffffffffffffffffffffffffffffffffffffffffffffffffffffffffffffffff0382111561517957615178615377565b5b828201905092915050565b600061518f82615286565b915061519a83615286565b9250817fffffffffffffffffffffffffffffffffffffffffffffffffffffffffffffffff04831182151516156151d3576151d2615377565b5b828202905092915050565b60006151e982615286565b91506151f483615286565b92508282101561520757615206615377565b5b828203905092915050565b600061521d82615266565b9050919050565b60008115159050919050565b6000819050919050565b60007fffffffff0000000000000000000000000000000000000000000000000000000082169050919050565b600073ffffffffffffffffffffffffffffffffffffffff82169050919050565b6000819050919050565b82818337600083830152505050565b60005b838110156152bd5780820151818401526020810190506152a2565b838111156152cc576000848401525b50505050565b60006152dd82615286565b915060008214156152f1576152f0615377565b5b600182039050919050565b6000600282049050600182168061531457607f821691505b60208210811415615328576153276153a6565b5b50919050565b600061533982615286565b91507fffffffffffffffffffffffffffffffffffffffffffffffffffffffffffffffff82141561536c5761536b615377565b5b600182019050919050565b7f4e487b7100000000000000000000000000000000000000000000000000000000600052601160045260246000fd5b7f4e487b7100000000000000000000000000000000000000000000000000000000600052602260045260246000fd5b6000601f19601f8301169050919050565b6153ef81615212565b81146153fa57600080fd5b50565b61540681615230565b811461541157600080fd5b50565b61541d8161523a565b811461542857600080fd5b50565b61543481615286565b811461543f57600080fd5b5056fea2646970667358221220a8bb9b3bc3423c06f0461907e764b7cbc7b88a180782da56f85823fd566a77b564736f6c63430008000033",
  "linkReferences": {},
  "deployedLinkReferences": {}
}